:100000000200320202BF7A007B0F90004178017932
:10001000028015E493A3AD82AE838A828B83F0A322
:10002000AA82AB838D828E83D8E9D9E71201AE1202
:1000300002BC75D0007581BF75080075090F0200FC
:1000400006303132333435363738396162636465AE
:100050006666656463626139383736353433323108
:100060003030313233343536373839616263646564
:1000700066666564636261393837363534333231E8
:100080003030313233343536373839616263646544
:1000900066666564636261393837363534333231C8
:1000A0003030313233343536373839616263646524
:1000B00066666564636261393837363534333231A8
:1000C0003030313233343536373839616263646504
:1000D0006666656463626139383736353433323188
:1000E00030303132333435363738396162636465E4
:1000F0006666656463626139383736353433323168
:1001000030303132333435363738396162636465C3
:100110006666656463626139383736353433323147
:1001200030303132333435363738396162636465A3
:100130006666656463626139383736353433323127
:1001400000CAC0E0E0A3C582CCC582C583CDC5830B
:10015000F0A3C582CCC582C583CDC583DAE6D0E0E5
:10016000CA22C5822508C582C583350910AF07F5A7
:10017000098582088007F509858208D2AFC58322E8
:100180002508F582E43509F583222508FCE43509C4
:10019000FD2275805575A00075B0007580007580D2
:1001A0009675800075900075A00075B0002275826C
:1001B000E07583FE120162900F00742012018A74B0
:1001C00000120141120192758000800675A0FF7532
:1001D00080C0740265906043E59060F0E590540340
:1001E00064037023E5B0F879007420120180E58281
:1001F00028F582E58339F583E0F5A0E590131354E3
:100200003F4440F58080CB74CC659070C57580CC40
:1002100080C07E007F00EE4480F580E5905403644A
:1002200002703E7402659060E9E5905407640670C0
:10023000EAE590131313541FF87900E5B0C0E08588
:100240000882850983E58228F582E58339F583D024
:10025000E0F00EEE70010F74206E700374006F708A
:10026000067E007F008032EE4480F58080AD8508F8
:1002700082850983E5822EF582E5833FF583E0F5EB
:1002800080850882850983E5822EF582E5833FF526
:1002900083E0F5A00EEE70010FC3EE9420EF940002
:1002A00040CC75B00075870275A00075B00092F063
:1002B000758220758301120162A2F0220200038080
:0102C000FE3F
:00003201CD
:00000001FF
