:1000000002003202022F7A007B0F9000417875794E
:10001000018015E493A3AD82AE838A828B83F0A323
:10002000AA82AB838D828E83D8E9D9E7120135127B
:10003000022C75D0007581BF75080075090F02008C
:1000400006313039322D48617264776172652D5303
:100050006F6674776172652D436F2D4465736967B0
:100060006E2D436C6173732D303631375F6133739E
:10007000326631617336386466316173396466386B
:1000800061347364366631617364663961387364F0
:1000900066316173366466353331415344463638D0
:1000A000617331643966387331646639353637388F
:1000B000396B627500CAC0E0E0A3C582CCC582C5B9
:1000C00083CDC583F0A3C582CCC582C583CDC5834E
:1000D000DAE6D0E0CA22250810AF08F508400C1572
:1000E000098008F50840021509D2AF2200C0D025CA
:1000F0000810AF08F508500C05098008F5085002F3
:100100000509D2AFD0D0222508F582E43509F58360
:10011000222508FCE43509FD2275805575A000757F
:10012000B00075800075809675800075900075A090
:100130000075B00022746C1200D6900F007420126B
:10014000011174741200B5120119758000800675D2
:10015000A0737580C0740265906038E59060F0E52A
:10016000905403640370EEE5B0F879007420120136
:1001700007E58228F582E58339F583E0F5A0E5906F
:100180001313543F4440F58080CB7E007F00EE4443
:1001900080F580E59054036402703E7402659060BF
:1001A000E9E5905407640670EAE590131313541FB1
:1001B000F87900E5B0C0E0850882850983E58228EA
:1001C000F582E58339F583D0E0F00EEE70010F740F
:1001D000206E700374006F70067E007F008032EE28
:1001E0004480F58080AD850882850983E5822EF5FF
:1001F00082E5833FF583E0F580850882850983E504
:10020000822EF582E5833FF583E0F5A00EEE7001C6
:100210000FC3EE9420EF940040CC75B000758702B8
:1002200075A00075B00074941200EC2202000380E7
:01023000FECF
:00003201CD
:00000001FF
